{
  "contractName": "CharityToken",
  "abi": [
    {
      "inputs": [],
      "stateMutability": "nonpayable",
      "type": "constructor"
    },
    {
      "anonymous": false,
      "inputs": [
        {
          "indexed": true,
          "internalType": "address",
          "name": "owner",
          "type": "address"
        },
        {
          "indexed": true,
          "internalType": "address",
          "name": "spender",
          "type": "address"
        },
        {
          "indexed": false,
          "internalType": "uint256",
          "name": "value",
          "type": "uint256"
        }
      ],
      "name": "Approval",
      "type": "event"
    },
    {
      "anonymous": false,
      "inputs": [
        {
          "indexed": false,
          "internalType": "uint256",
          "name": "minTokensBeforeSwap",
          "type": "uint256"
        }
      ],
      "name": "MinTokensBeforeSwapUpdated",
      "type": "event"
    },
    {
      "anonymous": false,
      "inputs": [
        {
          "indexed": true,
          "internalType": "address",
          "name": "previousOwner",
          "type": "address"
        },
        {
          "indexed": true,
          "internalType": "address",
          "name": "newOwner",
          "type": "address"
        }
      ],
      "name": "OwnershipTransferred",
      "type": "event"
    },
    {
      "anonymous": false,
      "inputs": [
        {
          "indexed": false,
          "internalType": "bool",
          "name": "enabled",
          "type": "bool"
        }
      ],
      "name": "SwapEnabledUpdated",
      "type": "event"
    },
    {
      "anonymous": false,
      "inputs": [
        {
          "indexed": true,
          "internalType": "address",
          "name": "from",
          "type": "address"
        },
        {
          "indexed": true,
          "internalType": "address",
          "name": "to",
          "type": "address"
        },
        {
          "indexed": false,
          "internalType": "uint256",
          "name": "value",
          "type": "uint256"
        }
      ],
      "name": "Transfer",
      "type": "event"
    },
    {
      "inputs": [],
      "name": "_charityFee",
      "outputs": [
        {
          "internalType": "uint256",
          "name": "",
          "type": "uint256"
        }
      ],
      "stateMutability": "view",
      "type": "function"
    },
    {
      "inputs": [],
      "name": "_taxFee",
      "outputs": [
        {
          "internalType": "uint256",
          "name": "",
          "type": "uint256"
        }
      ],
      "stateMutability": "view",
      "type": "function"
    },
    {
      "inputs": [],
      "name": "charityFactory",
      "outputs": [
        {
          "internalType": "address payable",
          "name": "",
          "type": "address"
        }
      ],
      "stateMutability": "view",
      "type": "function"
    },
    {
      "inputs": [],
      "name": "owner",
      "outputs": [
        {
          "internalType": "address",
          "name": "",
          "type": "address"
        }
      ],
      "stateMutability": "view",
      "type": "function"
    },
    {
      "inputs": [],
      "name": "renounceOwnership",
      "outputs": [],
      "stateMutability": "nonpayable",
      "type": "function"
    },
    {
      "inputs": [],
      "name": "swapEnabled",
      "outputs": [
        {
          "internalType": "bool",
          "name": "",
          "type": "bool"
        }
      ],
      "stateMutability": "view",
      "type": "function"
    },
    {
      "inputs": [
        {
          "internalType": "address",
          "name": "newOwner",
          "type": "address"
        }
      ],
      "name": "transferOwnership",
      "outputs": [],
      "stateMutability": "nonpayable",
      "type": "function"
    },
    {
      "inputs": [],
      "name": "uniswapV2Pair",
      "outputs": [
        {
          "internalType": "address",
          "name": "",
          "type": "address"
        }
      ],
      "stateMutability": "view",
      "type": "function"
    },
    {
      "inputs": [],
      "name": "uniswapV2Router",
      "outputs": [
        {
          "internalType": "contract IUniswapV2Router02",
          "name": "",
          "type": "address"
        }
      ],
      "stateMutability": "view",
      "type": "function"
    },
    {
      "stateMutability": "payable",
      "type": "receive"
    },
    {
      "inputs": [],
      "name": "name",
      "outputs": [
        {
          "internalType": "string",
          "name": "",
          "type": "string"
        }
      ],
      "stateMutability": "view",
      "type": "function"
    },
    {
      "inputs": [],
      "name": "symbol",
      "outputs": [
        {
          "internalType": "string",
          "name": "",
          "type": "string"
        }
      ],
      "stateMutability": "view",
      "type": "function"
    },
    {
      "inputs": [],
      "name": "decimals",
      "outputs": [
        {
          "internalType": "uint8",
          "name": "",
          "type": "uint8"
        }
      ],
      "stateMutability": "view",
      "type": "function"
    },
    {
      "inputs": [],
      "name": "totalSupply",
      "outputs": [
        {
          "internalType": "uint256",
          "name": "",
          "type": "uint256"
        }
      ],
      "stateMutability": "view",
      "type": "function"
    },
    {
      "inputs": [],
      "name": "rate",
      "outputs": [
        {
          "internalType": "uint256",
          "name": "",
          "type": "uint256"
        }
      ],
      "stateMutability": "view",
      "type": "function"
    },
    {
      "inputs": [
        {
          "internalType": "address",
          "name": "account",
          "type": "address"
        }
      ],
      "name": "balanceOf",
      "outputs": [
        {
          "internalType": "uint256",
          "name": "",
          "type": "uint256"
        }
      ],
      "stateMutability": "view",
      "type": "function"
    },
    {
      "inputs": [
        {
          "internalType": "address",
          "name": "recipient",
          "type": "address"
        },
        {
          "internalType": "uint256",
          "name": "amount",
          "type": "uint256"
        }
      ],
      "name": "transfer",
      "outputs": [
        {
          "internalType": "bool",
          "name": "",
          "type": "bool"
        }
      ],
      "stateMutability": "nonpayable",
      "type": "function"
    },
    {
      "inputs": [
        {
          "internalType": "address",
          "name": "owner_",
          "type": "address"
        },
        {
          "internalType": "address",
          "name": "spender",
          "type": "address"
        }
      ],
      "name": "allowance",
      "outputs": [
        {
          "internalType": "uint256",
          "name": "",
          "type": "uint256"
        }
      ],
      "stateMutability": "view",
      "type": "function"
    },
    {
      "inputs": [
        {
          "internalType": "address",
          "name": "spender",
          "type": "address"
        },
        {
          "internalType": "uint256",
          "name": "amount",
          "type": "uint256"
        }
      ],
      "name": "approve",
      "outputs": [
        {
          "internalType": "bool",
          "name": "",
          "type": "bool"
        }
      ],
      "stateMutability": "nonpayable",
      "type": "function"
    },
    {
      "inputs": [
        {
          "internalType": "address",
          "name": "sender",
          "type": "address"
        },
        {
          "internalType": "address",
          "name": "recipient",
          "type": "address"
        },
        {
          "internalType": "uint256",
          "name": "amount",
          "type": "uint256"
        }
      ],
      "name": "transferFrom",
      "outputs": [
        {
          "internalType": "bool",
          "name": "",
          "type": "bool"
        }
      ],
      "stateMutability": "nonpayable",
      "type": "function"
    },
    {
      "inputs": [
        {
          "internalType": "address",
          "name": "spender",
          "type": "address"
        },
        {
          "internalType": "uint256",
          "name": "addedValue",
          "type": "uint256"
        }
      ],
      "name": "increaseAllowance",
      "outputs": [
        {
          "internalType": "bool",
          "name": "",
          "type": "bool"
        }
      ],
      "stateMutability": "nonpayable",
      "type": "function"
    },
    {
      "inputs": [
        {
          "internalType": "address",
          "name": "spender",
          "type": "address"
        },
        {
          "internalType": "uint256",
          "name": "subtractedValue",
          "type": "uint256"
        }
      ],
      "name": "decreaseAllowance",
      "outputs": [
        {
          "internalType": "bool",
          "name": "",
          "type": "bool"
        }
      ],
      "stateMutability": "nonpayable",
      "type": "function"
    },
    {
      "inputs": [
        {
          "internalType": "address",
          "name": "account",
          "type": "address"
        }
      ],
      "name": "isExcluded",
      "outputs": [
        {
          "internalType": "bool",
          "name": "",
          "type": "bool"
        }
      ],
      "stateMutability": "view",
      "type": "function"
    },
    {
      "inputs": [],
      "name": "totalFees",
      "outputs": [
        {
          "internalType": "uint256",
          "name": "",
          "type": "uint256"
        }
      ],
      "stateMutability": "view",
      "type": "function"
    },
    {
      "inputs": [
        {
          "internalType": "uint256",
          "name": "tAmount",
          "type": "uint256"
        }
      ],
      "name": "deliver",
      "outputs": [],
      "stateMutability": "nonpayable",
      "type": "function"
    },
    {
      "inputs": [
        {
          "internalType": "uint256",
          "name": "tAmount",
          "type": "uint256"
        },
        {
          "internalType": "bool",
          "name": "deductTransferFee",
          "type": "bool"
        }
      ],
      "name": "reflectionFromToken",
      "outputs": [
        {
          "internalType": "uint256",
          "name": "",
          "type": "uint256"
        }
      ],
      "stateMutability": "view",
      "type": "function"
    },
    {
      "inputs": [
        {
          "internalType": "uint256",
          "name": "rAmount",
          "type": "uint256"
        }
      ],
      "name": "tokenFromReflection",
      "outputs": [
        {
          "internalType": "uint256",
          "name": "",
          "type": "uint256"
        }
      ],
      "stateMutability": "view",
      "type": "function"
    },
    {
      "inputs": [
        {
          "internalType": "address",
          "name": "account",
          "type": "address"
        }
      ],
      "name": "excludeAccount",
      "outputs": [],
      "stateMutability": "nonpayable",
      "type": "function"
    },
    {
      "inputs": [
        {
          "internalType": "address",
          "name": "account",
          "type": "address"
        }
      ],
      "name": "includeAccount",
      "outputs": [],
      "stateMutability": "nonpayable",
      "type": "function"
    },
    {
      "inputs": [
        {
          "internalType": "address",
          "name": "account",
          "type": "address"
        }
      ],
      "name": "isExcludedFromFee",
      "outputs": [
        {
          "internalType": "bool",
          "name": "",
          "type": "bool"
        }
      ],
      "stateMutability": "view",
      "type": "function"
    },
    {
      "inputs": [],
      "name": "manualSwap",
      "outputs": [],
      "stateMutability": "nonpayable",
      "type": "function"
    },
    {
      "inputs": [],
      "name": "manualSend",
      "outputs": [],
      "stateMutability": "nonpayable",
      "type": "function"
    },
    {
      "inputs": [
        {
          "internalType": "uint256",
          "name": "percentage",
          "type": "uint256"
        }
      ],
      "name": "burnTokens",
      "outputs": [],
      "stateMutability": "nonpayable",
      "type": "function"
    },
    {
      "inputs": [],
      "name": "_getETHBalance",
      "outputs": [
        {
          "internalType": "uint256",
          "name": "balance",
          "type": "uint256"
        }
      ],
      "stateMutability": "view",
      "type": "function"
    },
    {
      "inputs": [
        {
          "internalType": "uint256",
          "name": "taxFee",
          "type": "uint256"
        }
      ],
      "name": "_setTaxFee",
      "outputs": [],
      "stateMutability": "nonpayable",
      "type": "function"
    },
    {
      "inputs": [
        {
          "internalType": "uint256",
          "name": "charityFee",
          "type": "uint256"
        }
      ],
      "name": "_setCharityFee",
      "outputs": [],
      "stateMutability": "nonpayable",
      "type": "function"
    },
    {
      "inputs": [
        {
          "internalType": "address payable",
          "name": "charityFactoryAddress",
          "type": "address"
        }
      ],
      "name": "_setCharityFactory",
      "outputs": [],
      "stateMutability": "nonpayable",
      "type": "function"
    },
    {
      "inputs": [
        {
          "internalType": "uint256",
          "name": "maxTxAmount",
          "type": "uint256"
        }
      ],
      "name": "_setMaxTxAmount",
      "outputs": [],
      "stateMutability": "nonpayable",
      "type": "function"
    },
    {
      "inputs": [
        {
          "internalType": "address",
          "name": "uniswapV2RouterAddress",
          "type": "address"
        }
      ],
      "name": "_setUniswapV2Router",
      "outputs": [],
      "stateMutability": "nonpayable",
      "type": "function"
    },
    {
      "inputs": [
        {
          "internalType": "address",
          "name": "uniswapV2PairAddress",
          "type": "address"
        }
      ],
      "name": "_setUniswapV2Pair",
      "outputs": [],
      "stateMutability": "nonpayable",
      "type": "function"
    }
  ],
  "bytecode": "0x60806040526b1a2c29b7db4c0eba24000000600a819055620000249060001962000270565b620000329060001962000293565b600b5560408051808201909152600c8082526b21b430b934ba3caa37b5b2b760a11b60209092019182526200006a91600d91620001ca565b506040805180820190915260048082526310d2105560e21b60209092019182526200009891600e91620001ca565b50600f805460ff19166012908117909155600060108190556011819055908190556013556014805461ffff191690556c0c9f2c9cd04674edea4000000060155569d3c21bcecceda1000000601655348015620000f357600080fd5b50620000ff336200017a565b600b543360008181526001602081815260408084209590955560048152848320805460ff1990811684179091553084528584208054909116909217909155600a549351938452919290917fddf252ad1be2c89b69c2b068fc378daa952ba7f163c4a11628f55a4df523b3ef910160405180910390a3620002f6565b600080546001600160a01b038381166001600160a01b0319831681178455604051919092169283917f8be0079c531659141344cd1fd0a4f28419497f9722a3daafe3b4186f6b6457e09190a35050565b828054620001d890620002b9565b90600052602060002090601f016020900481019282620001fc576000855562000247565b82601f106200021757805160ff191683800117855562000247565b8280016001018555821562000247579182015b82811115620002475782518255916020019190600101906200022a565b506200025592915062000259565b5090565b5b808211156200025557600081556001016200025a565b6000826200028e57634e487b7160e01b600052601260045260246000fd5b500690565b600082821015620002b457634e487b7160e01b600052601160045260246000fd5b500390565b600181811c90821680620002ce57607f821691505b60208210811415620002f057634e487b7160e01b600052602260045260246000fd5b50919050565b61243780620003066000396000f3fe6080604052600436106102345760003560e01c80636d1b229d1161012e578063a457c2d7116100ab578063f2cc0c181161006f578063f2cc0c18146106c0578063f2fde38b146106e0578063f429389014610700578063f815a84214610715578063f84354f11461072857600080fd5b8063a457c2d7146105e1578063a9059cbb14610601578063c5b71eb614610621578063cba0e99614610641578063dd62ed3e1461067a57600080fd5b80638da5cb5b116100f25780638da5cb5b1461054e57806395d89b411461056c578063964a696414610581578063a0c2dc1f146105a1578063a24a8d0f146105c157600080fd5b80636d1b229d146104ba5780636ddd1713146104da57806370a08231146104f9578063715018a6146105195780638423214e1461052e57600080fd5b8063313ce567116101bc5780634549b039116101805780634549b0391461040c57806349bd5a5e1461042c57806351bc3c851461044c5780635342acb4146104615780635880b8731461049a57600080fd5b8063313ce5671461037e57806339509351146103a05780633b124fe7146103c05780633bd5d173146103d657806340f8007a146103f657600080fd5b806318160ddd1161020357806318160ddd146102f25780631bbae6e01461030757806323b872dd146103295780632c4e722e146103495780632d8381191461035e57600080fd5b806306fdde0314610240578063095ea7b31461026b57806313114a9d1461029b5780631694505e146102ba57600080fd5b3661023b57005b600080fd5b34801561024c57600080fd5b50610255610748565b6040516102629190612079565b60405180910390f35b34801561027757600080fd5b5061028b6102863660046120e3565b6107da565b6040519015158152602001610262565b3480156102a757600080fd5b50600c545b604051908152602001610262565b3480156102c657600080fd5b506007546102da906001600160a01b031681565b6040516001600160a01b039091168152602001610262565b3480156102fe57600080fd5b50600a546102ac565b34801561031357600080fd5b5061032761032236600461210f565b6107f1565b005b34801561033557600080fd5b5061028b610344366004612128565b6108a0565b34801561035557600080fd5b506102ac610909565b34801561036a57600080fd5b506102ac61037936600461210f565b610918565b34801561038a57600080fd5b50600f5460405160ff9091168152602001610262565b3480156103ac57600080fd5b5061028b6103bb3660046120e3565b61099c565b3480156103cc57600080fd5b506102ac60105481565b3480156103e257600080fd5b506103276103f136600461210f565b6109d2565b34801561040257600080fd5b506102ac60115481565b34801561041857600080fd5b506102ac610427366004612169565b610abc565b34801561043857600080fd5b506008546102da906001600160a01b031681565b34801561045857600080fd5b50610327610b49565b34801561046d57600080fd5b5061028b61047c36600461219e565b6001600160a01b031660009081526004602052604090205460ff1690565b3480156104a657600080fd5b506103276104b536600461210f565b610b8c565b3480156104c657600080fd5b506103276104d536600461210f565b610c19565b3480156104e657600080fd5b5060145461028b90610100900460ff1681565b34801561050557600080fd5b506102ac61051436600461219e565b610c43565b34801561052557600080fd5b50610327610ca2565b34801561053a57600080fd5b5061032761054936600461219e565b610cd8565b34801561055a57600080fd5b506000546001600160a01b03166102da565b34801561057857600080fd5b50610255610d24565b34801561058d57600080fd5b5061032761059c36600461219e565b610d33565b3480156105ad57600080fd5b506009546102da906001600160a01b031681565b3480156105cd57600080fd5b506103276105dc36600461210f565b610d7f565b3480156105ed57600080fd5b5061028b6105fc3660046120e3565b610e0c565b34801561060d57600080fd5b5061028b61061c3660046120e3565b610e5b565b34801561062d57600080fd5b5061032761063c36600461219e565b610e68565b34801561064d57600080fd5b5061028b61065c36600461219e565b6001600160a01b031660009081526005602052604090205460ff1690565b34801561068657600080fd5b506102ac6106953660046121bb565b6001600160a01b03918216600090815260036020908152604080832093909416825291909152205490565b3480156106cc57600080fd5b506103276106db36600461219e565b610eb4565b3480156106ec57600080fd5b506103276106fb36600461219e565b611070565b34801561070c57600080fd5b50610327611108565b34801561072157600080fd5b50476102ac565b34801561073457600080fd5b5061032761074336600461219e565b61113c565b6060600d8054610757906121e9565b80601f0160208091040260200160405190810160405280929190818152602001828054610783906121e9565b80156107d05780601f106107a5576101008083540402835291602001916107d0565b820191906000526020600020905b8154815290600101906020018083116107b357829003601f168201915b5050505050905090565b60006107e73384846112f3565b5060015b92915050565b6000546001600160a01b031633146108245760405162461bcd60e51b815260040161081b90612224565b60405180910390fd5b69152d02c7e14af680000081101561089b5760405162461bcd60e51b815260206004820152603460248201527f6d61785478416d6f756e742073686f756c642062652067726561746572207468604482015273616e20313030303030303030303030303030653960601b606482015260840161081b565b601555565b60006108ad848484611417565b6108ff84336108fa856040518060600160405280602881526020016123b5602891396001600160a01b038a16600090815260036020908152604080832033845290915290205491906116b2565b6112f3565b5060019392505050565b60006109136116de565b905090565b6000600b5482111561097f5760405162461bcd60e51b815260206004820152602a60248201527f416d6f756e74206d757374206265206c657373207468616e20746f74616c207260448201526965666c656374696f6e7360b01b606482015260840161081b565b60006109896116de565b90506109958382611701565b9392505050565b3360008181526003602090815260408083206001600160a01b038716845290915281205490916107e79185906108fa908661170d565b3360008181526005602052604090205460ff1615610a475760405162461bcd60e51b815260206004820152602c60248201527f4578636c75646564206164647265737365732063616e6e6f742063616c6c207460448201526b3434b990333ab731ba34b7b760a11b606482015260840161081b565b6000610a5283611719565b505050506001600160a01b038416600090815260016020526040902054919250610a7e91905082611775565b6001600160a01b038316600090815260016020526040902055600b54610aa49082611775565b600b55600c54610ab4908461170d565b600c55505050565b6000600a54831115610b105760405162461bcd60e51b815260206004820152601f60248201527f416d6f756e74206d757374206265206c657373207468616e20737570706c7900604482015260640161081b565b81610b2f576000610b2084611719565b509395506107eb945050505050565b6000610b3a84611719565b509295506107eb945050505050565b6000546001600160a01b03163314610b735760405162461bcd60e51b815260040161081b90612224565b6000610b7e30610c43565b9050610b8981611781565b50565b6000546001600160a01b03163314610bb65760405162461bcd60e51b815260040161081b90612224565b60018110158015610bc85750600a8111155b610c145760405162461bcd60e51b815260206004820152601a60248201527f7461784665652073686f756c6420626520696e2031202d203130000000000000604482015260640161081b565b601055565b6000546001600160a01b03163314610b895760405162461bcd60e51b815260040161081b90612224565b6001600160a01b03811660009081526005602052604081205460ff1615610c8057506001600160a01b031660009081526002602052604090205490565b6001600160a01b0382166000908152600160205260409020546107eb90610918565b6000546001600160a01b03163314610ccc5760405162461bcd60e51b815260040161081b90612224565b610cd660006118f2565b565b6000546001600160a01b03163314610d025760405162461bcd60e51b815260040161081b90612224565b600880546001600160a01b0319166001600160a01b0392909216919091179055565b6060600e8054610757906121e9565b6000546001600160a01b03163314610d5d5760405162461bcd60e51b815260040161081b90612224565b600980546001600160a01b0319166001600160a01b0392909216919091179055565b6000546001600160a01b03163314610da95760405162461bcd60e51b815260040161081b90612224565b60018110158015610dbb575060058111155b610e075760405162461bcd60e51b815260206004820152601d60248201527f636861726974794665652073686f756c6420626520696e2031202d2035000000604482015260640161081b565b601155565b60006107e733846108fa856040518060600160405280602581526020016123dd602591393360009081526003602090815260408083206001600160a01b038d16845290915290205491906116b2565b60006107e7338484611417565b6000546001600160a01b03163314610e925760405162461bcd60e51b815260040161081b90612224565b600780546001600160a01b0319166001600160a01b0392909216919091179055565b6000546001600160a01b03163314610ede5760405162461bcd60e51b815260040161081b90612224565b6007546001600160a01b0382811691161415610f475760405162461bcd60e51b815260206004820152602260248201527f57652063616e206e6f74206578636c75646520556e697377617020726f757465604482015261391760f11b606482015260840161081b565b6001600160a01b03811660009081526005602052604090205460ff1615610fb05760405162461bcd60e51b815260206004820152601b60248201527f4163636f756e7420697320616c7265616479206578636c756465640000000000604482015260640161081b565b6001600160a01b0381166000908152600160205260409020541561100a576001600160a01b038116600090815260016020526040902054610ff090610918565b6001600160a01b0382166000908152600260205260409020555b6001600160a01b03166000818152600560205260408120805460ff191660019081179091556006805491820181559091527ff652222313e28459528d920b65115c16c04f3efc82aaedc97be59f3f377c0d3f0180546001600160a01b0319169091179055565b6000546001600160a01b0316331461109a5760405162461bcd60e51b815260040161081b90612224565b6001600160a01b0381166110ff5760405162461bcd60e51b815260206004820152602660248201527f4f776e61626c653a206e6577206f776e657220697320746865207a65726f206160448201526564647265737360d01b606482015260840161081b565b610b89816118f2565b6000546001600160a01b031633146111325760405162461bcd60e51b815260040161081b90612224565b47610b8981611942565b6000546001600160a01b031633146111665760405162461bcd60e51b815260040161081b90612224565b6001600160a01b03811660009081526005602052604090205460ff166111ce5760405162461bcd60e51b815260206004820152601b60248201527f4163636f756e7420697320616c7265616479206578636c756465640000000000604482015260640161081b565b60005b6006548110156112ef57816001600160a01b0316600682815481106111f8576111f8612259565b6000918252602090912001546001600160a01b031614156112dd576006805461122390600190612285565b8154811061123357611233612259565b600091825260209091200154600680546001600160a01b03909216918390811061125f5761125f612259565b600091825260208083209190910180546001600160a01b0319166001600160a01b039485161790559184168152600282526040808220829055600590925220805460ff1916905560068054806112b7576112b761229c565b600082815260209020810160001990810180546001600160a01b03191690550190555050565b806112e7816122b2565b9150506111d1565b5050565b6001600160a01b0383166113555760405162461bcd60e51b8152602060048201526024808201527f45524332303a20617070726f76652066726f6d20746865207a65726f206164646044820152637265737360e01b606482015260840161081b565b6001600160a01b0382166113b65760405162461bcd60e51b815260206004820152602260248201527f45524332303a20617070726f766520746f20746865207a65726f206164647265604482015261737360f01b606482015260840161081b565b6001600160a01b0383811660008181526003602090815260408083209487168084529482529182902085905590518481527f8c5be1e5ebec7d5bd14f71427d1e84f3dd0314c0f7b2291e5b200ac8c7c3b925910160405180910390a3505050565b6001600160a01b03831661147b5760405162461bcd60e51b815260206004820152602560248201527f45524332303a207472616e736665722066726f6d20746865207a65726f206164604482015264647265737360d81b606482015260840161081b565b6001600160a01b0382166114dd5760405162461bcd60e51b815260206004820152602360248201527f45524332303a207472616e7366657220746f20746865207a65726f206164647260448201526265737360e81b606482015260840161081b565b6000811161153f5760405162461bcd60e51b815260206004820152602960248201527f5472616e7366657220616d6f756e74206d7573742062652067726561746572206044820152687468616e207a65726f60b81b606482015260840161081b565b6000546001600160a01b0384811691161480159061156b57506000546001600160a01b03838116911614155b156115d3576015548111156115d35760405162461bcd60e51b815260206004820152602860248201527f5472616e7366657220616d6f756e74206578636565647320746865206d6178546044820152673c20b6b7bab73a1760c11b606482015260840161081b565b60006115de30610c43565b905060155481106115ee57506015545b601654601454908210159060ff161580156116105750601454610100900460ff165b80156116195750805b801561163357506008546001600160a01b03868116911614155b156116535761164182611781565b4780156116515761165147611942565b505b6001600160a01b03851660009081526004602052604090205460019060ff168061169557506001600160a01b03851660009081526004602052604090205460ff165b1561169e575060005b6116aa8686868461197c565b505050505050565b600081848411156116d65760405162461bcd60e51b815260040161081b9190612079565b505050900390565b60008060006116eb611af9565b90925090506116fa8282611701565b9250505090565b600061099582846122cd565b600061099582846122ef565b60008060008060008060008060006117368a601054601154611c7b565b92509250925060006117466116de565b905060008060006117588e8786611cd0565b919e509c509a509598509396509194505050505091939550919395565b60006109958284612285565b6014805460ff1916600117905560408051600280825260608201835260009260208301908036833701905050905030816000815181106117c3576117c3612259565b6001600160a01b03928316602091820292909201810191909152600754604080516315ab88c960e31b81529051919093169263ad5c46489260048083019391928290030181865afa15801561181c573d6000803e3d6000fd5b505050506040513d601f19601f820116820180604052508101906118409190612307565b8160018151811061185357611853612259565b6001600160a01b03928316602091820292909201015260075461187991309116846112f3565b60075460405163791ac94760e01b81526001600160a01b039091169063791ac947906118b2908590600090869030904290600401612324565b600060405180830381600087803b1580156118cc57600080fd5b505af11580156118e0573d6000803e3d6000fd5b50506014805460ff1916905550505050565b600080546001600160a01b038381166001600160a01b0319831681178455604051919092169283917f8be0079c531659141344cd1fd0a4f28419497f9722a3daafe3b4186f6b6457e09190a35050565b6009546040516001600160a01b039091169082156108fc029083906000818181858888f193505050501580156112ef573d6000803e3d6000fd5b8061198957611989611d0c565b6001600160a01b03841660009081526005602052604090205460ff1680156119ca57506001600160a01b03831660009081526005602052604090205460ff16155b156119df576119da848484611d3a565b611add565b6001600160a01b03841660009081526005602052604090205460ff16158015611a2057506001600160a01b03831660009081526005602052604090205460ff165b15611a30576119da848484611e60565b6001600160a01b03841660009081526005602052604090205460ff16158015611a7257506001600160a01b03831660009081526005602052604090205460ff16155b15611a82576119da848484611f09565b6001600160a01b03841660009081526005602052604090205460ff168015611ac257506001600160a01b03831660009081526005602052604090205460ff165b15611ad2576119da848484611f4d565b611add848484611f09565b80611af357611af3601254601055601354601155565b50505050565b600b54600a546000918291825b600654811015611c4b57826001600060068481548110611b2857611b28612259565b60009182526020808320909101546001600160a01b031683528201929092526040019020541180611b935750816002600060068481548110611b6c57611b6c612259565b60009182526020808320909101546001600160a01b03168352820192909252604001902054115b15611ba957600b54600a54945094505050509091565b611bef6001600060068481548110611bc357611bc3612259565b60009182526020808320909101546001600160a01b031683528201929092526040019020548490611775565b9250611c376002600060068481548110611c0b57611c0b612259565b60009182526020808320909101546001600160a01b031683528201929092526040019020548390611775565b915080611c43816122b2565b915050611b06565b50600a54600b54611c5b91611701565b821015611c7257600b54600a549350935050509091565b90939092509050565b6000808080611c956064611c8f8989611fc0565b90611701565b90506000611ca86064611c8f8a89611fc0565b90506000611cc082611cba8b86611775565b90611775565b9992985090965090945050505050565b6000808080611cdf8786611fc0565b90506000611ced8787611fc0565b90506000611cfb8383611775565b929992985090965090945050505050565b601054158015611d1c5750601154155b15611d2357565b601080546012556011805460135560009182905555565b600080600080600080611d4c87611719565b6001600160a01b038f16600090815260026020526040902054959b50939950919750955093509150611d7e9088611775565b6001600160a01b038a16600090815260026020908152604080832093909355600190522054611dad9087611775565b6001600160a01b03808b1660009081526001602052604080822093909355908a1681522054611ddc908661170d565b6001600160a01b038916600090815260016020526040902055611dfe81611fcc565b611e088483612055565b876001600160a01b0316896001600160a01b03167fddf252ad1be2c89b69c2b068fc378daa952ba7f163c4a11628f55a4df523b3ef85604051611e4d91815260200190565b60405180910390a3505050505050505050565b600080600080600080611e7287611719565b6001600160a01b038f16600090815260016020526040902054959b50939950919750955093509150611ea49087611775565b6001600160a01b03808b16600090815260016020908152604080832094909455918b16815260029091522054611eda908461170d565b6001600160a01b038916600090815260026020908152604080832093909355600190522054611ddc908661170d565b600080600080600080611f1b87611719565b6001600160a01b038f16600090815260016020526040902054959b50939950919750955093509150611dad9087611775565b600080600080600080611f5f87611719565b6001600160a01b038f16600090815260026020526040902054959b50939950919750955093509150611f919088611775565b6001600160a01b038a16600090815260026020908152604080832093909355600190522054611ea49087611775565b60006109958284612395565b6000611fd66116de565b90506000611fe48383611fc0565b30600090815260016020526040902054909150612001908261170d565b3060009081526001602090815260408083209390935560059052205460ff1615612050573060009081526002602052604090205461203f908461170d565b306000908152600260205260409020555b505050565b600b546120629083611775565b600b55600c54612072908261170d565b600c555050565b600060208083528351808285015260005b818110156120a65785810183015185820160400152820161208a565b818111156120b8576000604083870101525b50601f01601f1916929092016040019392505050565b6001600160a01b0381168114610b8957600080fd5b600080604083850312156120f657600080fd5b8235612101816120ce565b946020939093013593505050565b60006020828403121561212157600080fd5b5035919050565b60008060006060848603121561213d57600080fd5b8335612148816120ce565b92506020840135612158816120ce565b929592945050506040919091013590565b6000806040838503121561217c57600080fd5b823591506020830135801515811461219357600080fd5b809150509250929050565b6000602082840312156121b057600080fd5b8135610995816120ce565b600080604083850312156121ce57600080fd5b82356121d9816120ce565b91506020830135612193816120ce565b600181811c908216806121fd57607f821691505b6020821081141561221e57634e487b7160e01b600052602260045260246000fd5b50919050565b6020808252818101527f4f776e61626c653a2063616c6c6572206973206e6f7420746865206f776e6572604082015260600190565b634e487b7160e01b600052603260045260246000fd5b634e487b7160e01b600052601160045260246000fd5b6000828210156122975761229761226f565b500390565b634e487b7160e01b600052603160045260246000fd5b60006000198214156122c6576122c661226f565b5060010190565b6000826122ea57634e487b7160e01b600052601260045260246000fd5b500490565b600082198211156123025761230261226f565b500190565b60006020828403121561231957600080fd5b8151610995816120ce565b600060a082018783526020878185015260a0604085015281875180845260c086019150828901935060005b818110156123745784516001600160a01b03168352938301939183019160010161234f565b50506001600160a01b03969096166060850152505050608001529392505050565b60008160001904831182151516156123af576123af61226f565b50029056fe45524332303a207472616e7366657220616d6f756e74206578636565647320616c6c6f77616e636545524332303a2064656372656173656420616c6c6f77616e63652062656c6f77207a65726fa264697066735822122008710f0bcf74559ee455204abbe2c7a19d96caa5e64832446e84885544b4137964736f6c634300080c0033",
  "immutableReferences": {},
  "source": "// SPDX-License-Identifier: MIT\n\npragma solidity ^0.8.12;\n\nimport \"@openzeppelin/contracts/utils/math/SafeMath.sol\";\nimport \"@openzeppelin/contracts/utils/Context.sol\";\nimport \"@openzeppelin/contracts/utils/Address.sol\";\nimport \"@openzeppelin/contracts/access/Ownable.sol\";\nimport \"./interfaces/IERC20.sol\";\nimport \"./interfaces/IUniswapV2Factory.sol\";\nimport \"./interfaces/IUniswapV2Pair.sol\";\nimport \"./interfaces/IUniswapV2Router01.sol\";\nimport \"./interfaces/IUniswapV2Router02.sol\";\n\ncontract CharityToken is Context, IERC20, Ownable {\n    using SafeMath for uint256;\n    using Address for address;\n\n    mapping(address => uint256) private _rOwned;\n    mapping(address => uint256) private _tOwned;\n    mapping(address => mapping(address => uint256)) private _allowances;\n    mapping(address => bool) private _isExcludedFromFee;\n    mapping(address => bool) private _isExcluded;\n    address[] private _excluded;\n\n    IUniswapV2Router02 public uniswapV2Router;\n    address public uniswapV2Pair;\n    address payable public charityFactory;\n\n    uint256 private constant MAX = ~uint256(0);\n    uint256 private _tTotal = 8100 * 10**6 * 10**18;\n    uint256 private _rTotal = (MAX - (MAX % _tTotal));\n    uint256 private _tFeeTotal;\n    string private _name = \"CharityToken\";\n    string private _symbol = \"CHAT\";\n    uint8 private _decimals = 18;\n    uint256 public _taxFee = 0;\n    uint256 public _charityFee = 0;\n    uint256 private _previousTaxFee = _taxFee;\n    uint256 private _previousCharityFee = _charityFee;\n\n    bool inSwap = false;\n    bool public swapEnabled = false;\n\n    uint256 private _maxTxAmount = 1000000000000 * 10**18;\n    uint256 private _numOfTokensToExchangeForCharity = 1 * 10**6 * 10**18;\n\n    event MinTokensBeforeSwapUpdated(uint256 minTokensBeforeSwap);\n    event SwapEnabledUpdated(bool enabled);\n\n    modifier lockTheSwap() {\n        inSwap = true;\n        _;\n        inSwap = false;\n    }\n\n    constructor() {\n        _rOwned[_msgSender()] = _rTotal;\n\n        _isExcludedFromFee[_msgSender()] = true;\n        _isExcludedFromFee[address(this)] = true;\n\n        emit Transfer(address(0), _msgSender(), _tTotal);\n    }\n\n    function name() public view returns (string memory) {\n        return _name;\n    }\n\n    function symbol() public view returns (string memory) {\n        return _symbol;\n    }\n\n    function decimals() public view returns (uint8) {\n        return _decimals;\n    }\n\n    function totalSupply() public view override returns (uint256) {\n        return _tTotal;\n    }\n\n    function rate() public view returns (uint256) {\n        return _getRate();\n    }\n\n    function balanceOf(address account) public view override returns (uint256) {\n        if (_isExcluded[account]) return _tOwned[account];\n        return tokenFromReflection(_rOwned[account]);\n    }\n\n    function transfer(address recipient, uint256 amount) public override returns (bool) {\n        _transfer(_msgSender(), recipient, amount);\n        return true;\n    }\n\n    function allowance(address owner_, address spender) public view override returns (uint256) {\n        return _allowances[owner_][spender];\n    }\n\n    function approve(address spender, uint256 amount) public override returns (bool) {\n        _approve(_msgSender(), spender, amount);\n        return true;\n    }\n\n    function transferFrom(\n        address sender,\n        address recipient,\n        uint256 amount\n    ) public override returns (bool) {\n        _transfer(sender, recipient, amount);\n        _approve(\n            sender,\n            _msgSender(),\n            _allowances[sender][_msgSender()].sub(amount, \"ERC20: transfer amount exceeds allowance\")\n        );\n        return true;\n    }\n\n    function increaseAllowance(address spender, uint256 addedValue) public virtual returns (bool) {\n        _approve(_msgSender(), spender, _allowances[_msgSender()][spender].add(addedValue));\n        return true;\n    }\n\n    function decreaseAllowance(address spender, uint256 subtractedValue) public virtual returns (bool) {\n        _approve(\n            _msgSender(),\n            spender,\n            _allowances[_msgSender()][spender].sub(subtractedValue, \"ERC20: decreased allowance below zero\")\n        );\n        return true;\n    }\n\n    function isExcluded(address account) public view returns (bool) {\n        return _isExcluded[account];\n    }\n\n    function totalFees() public view returns (uint256) {\n        return _tFeeTotal;\n    }\n\n    function deliver(uint256 tAmount) public {\n        address sender = _msgSender();\n        require(!_isExcluded[sender], \"Excluded addresses cannot call this function\");\n        (uint256 rAmount, , , , , ) = _getValues(tAmount);\n        _rOwned[sender] = _rOwned[sender].sub(rAmount);\n        _rTotal = _rTotal.sub(rAmount);\n        _tFeeTotal = _tFeeTotal.add(tAmount);\n    }\n\n    function reflectionFromToken(uint256 tAmount, bool deductTransferFee) public view returns (uint256) {\n        require(tAmount <= _tTotal, \"Amount must be less than supply\");\n        if (!deductTransferFee) {\n            (uint256 rAmount, , , , , ) = _getValues(tAmount);\n            return rAmount;\n        } else {\n            (, uint256 rTransferAmount, , , , ) = _getValues(tAmount);\n            return rTransferAmount;\n        }\n    }\n\n    function tokenFromReflection(uint256 rAmount) public view returns (uint256) {\n        require(rAmount <= _rTotal, \"Amount must be less than total reflections\");\n        uint256 currentRate = _getRate();\n        return rAmount.div(currentRate);\n    }\n\n    function excludeAccount(address account) external onlyOwner {\n        require(account != address(uniswapV2Router), \"We can not exclude Uniswap router.\");\n        require(!_isExcluded[account], \"Account is already excluded\");\n        if (_rOwned[account] > 0) {\n            _tOwned[account] = tokenFromReflection(_rOwned[account]);\n        }\n        _isExcluded[account] = true;\n        _excluded.push(account);\n    }\n\n    function includeAccount(address account) external onlyOwner {\n        require(_isExcluded[account], \"Account is already excluded\");\n        for (uint256 i = 0; i < _excluded.length; i++) {\n            if (_excluded[i] == account) {\n                _excluded[i] = _excluded[_excluded.length - 1];\n                _tOwned[account] = 0;\n                _isExcluded[account] = false;\n                _excluded.pop();\n                break;\n            }\n        }\n    }\n\n    function removeAllFee() private {\n        if (_taxFee == 0 && _charityFee == 0) return;\n\n        _previousTaxFee = _taxFee;\n        _previousCharityFee = _charityFee;\n\n        _taxFee = 0;\n        _charityFee = 0;\n    }\n\n    function restoreAllFee() private {\n        _taxFee = _previousTaxFee;\n        _charityFee = _previousCharityFee;\n    }\n\n    function isExcludedFromFee(address account) public view returns (bool) {\n        return _isExcludedFromFee[account];\n    }\n\n    function _approve(\n        address owner_,\n        address spender,\n        uint256 amount\n    ) private {\n        require(owner_ != address(0), \"ERC20: approve from the zero address\");\n        require(spender != address(0), \"ERC20: approve to the zero address\");\n\n        _allowances[owner_][spender] = amount;\n        emit Approval(owner_, spender, amount);\n    }\n\n    function _transfer(\n        address sender,\n        address recipient,\n        uint256 amount\n    ) private {\n        require(sender != address(0), \"ERC20: transfer from the zero address\");\n        require(recipient != address(0), \"ERC20: transfer to the zero address\");\n        require(amount > 0, \"Transfer amount must be greater than zero\");\n\n        if (sender != owner() && recipient != owner())\n            require(amount <= _maxTxAmount, \"Transfer amount exceeds the maxTxAmount.\");\n\n        // is the token balance of this contract address over the min number of\n        // tokens that we need to initiate a swap?\n        // also, don't get caught in a circular charity event.\n        // also, don't swap if sender is uniswap pair.\n        uint256 contractTokenBalance = balanceOf(address(this));\n\n        if (contractTokenBalance >= _maxTxAmount) {\n            contractTokenBalance = _maxTxAmount;\n        }\n\n        bool overMinTokenBalance = contractTokenBalance >= _numOfTokensToExchangeForCharity;\n        if (!inSwap && swapEnabled && overMinTokenBalance && sender != uniswapV2Pair) {\n            // We need to swap the current tokens to ETH and send to the charity wallet\n            swapTokensForEth(contractTokenBalance);\n\n            uint256 contractETHBalance = address(this).balance;\n            if (contractETHBalance > 0) {\n                sendETHToCharity(address(this).balance);\n            }\n        }\n\n        //indicates if fee should be deducted from transfer\n        bool takeFee = true;\n\n        //if any account belongs to _isExcludedFromFee account then remove the fee\n        if (_isExcludedFromFee[sender] || _isExcludedFromFee[recipient]) {\n            takeFee = false;\n        }\n\n        //transfer amount, it will take tax and charity fee\n        _tokenTransfer(sender, recipient, amount, takeFee);\n    }\n\n    function swapTokensForEth(uint256 tokenAmount) private lockTheSwap {\n        // generate the uniswap pair path of token -> weth\n        address[] memory path = new address[](2);\n        path[0] = address(this);\n        path[1] = uniswapV2Router.WETH();\n\n        _approve(address(this), address(uniswapV2Router), tokenAmount);\n\n        // make the swap\n        uniswapV2Router.swapExactTokensForETHSupportingFeeOnTransferTokens(\n            tokenAmount,\n            0, // accept any amount of ETH\n            path,\n            address(this),\n            block.timestamp\n        );\n    }\n\n    function sendETHToCharity(uint256 amount) private {\n        charityFactory.transfer(amount);\n    }\n\n    // We are exposing these functions to be able to manual swap and send\n    // in case the token is highly valued and 5M becomes too much\n    function manualSwap() external onlyOwner {\n        uint256 contractBalance = balanceOf(address(this));\n        swapTokensForEth(contractBalance);\n    }\n\n    function manualSend() external onlyOwner {\n        uint256 contractETHBalance = address(this).balance;\n        sendETHToCharity(contractETHBalance);\n    }\n\n    // Exposing a burn method for burning events\n    function burnTokens(uint256 percentage) external onlyOwner {}\n\n    function _tokenTransfer(\n        address sender,\n        address recipient,\n        uint256 amount,\n        bool takeFee\n    ) private {\n        if (!takeFee) removeAllFee();\n\n        if (_isExcluded[sender] && !_isExcluded[recipient]) {\n            _transferFromExcluded(sender, recipient, amount);\n        } else if (!_isExcluded[sender] && _isExcluded[recipient]) {\n            _transferToExcluded(sender, recipient, amount);\n        } else if (!_isExcluded[sender] && !_isExcluded[recipient]) {\n            _transferStandard(sender, recipient, amount);\n        } else if (_isExcluded[sender] && _isExcluded[recipient]) {\n            _transferBothExcluded(sender, recipient, amount);\n        } else {\n            _transferStandard(sender, recipient, amount);\n        }\n\n        if (!takeFee) restoreAllFee();\n    }\n\n    function _transferStandard(\n        address sender,\n        address recipient,\n        uint256 tAmount\n    ) private {\n        (\n            uint256 rAmount,\n            uint256 rTransferAmount,\n            uint256 rFee,\n            uint256 tTransferAmount,\n            uint256 tFee,\n            uint256 tCharity\n        ) = _getValues(tAmount);\n        _rOwned[sender] = _rOwned[sender].sub(rAmount);\n        _rOwned[recipient] = _rOwned[recipient].add(rTransferAmount);\n        _takeCharity(tCharity);\n        _reflectFee(rFee, tFee);\n        emit Transfer(sender, recipient, tTransferAmount);\n    }\n\n    function _transferToExcluded(\n        address sender,\n        address recipient,\n        uint256 tAmount\n    ) private {\n        (\n            uint256 rAmount,\n            uint256 rTransferAmount,\n            uint256 rFee,\n            uint256 tTransferAmount,\n            uint256 tFee,\n            uint256 tCharity\n        ) = _getValues(tAmount);\n        _rOwned[sender] = _rOwned[sender].sub(rAmount);\n        _tOwned[recipient] = _tOwned[recipient].add(tTransferAmount);\n        _rOwned[recipient] = _rOwned[recipient].add(rTransferAmount);\n        _takeCharity(tCharity);\n        _reflectFee(rFee, tFee);\n        emit Transfer(sender, recipient, tTransferAmount);\n    }\n\n    function _transferFromExcluded(\n        address sender,\n        address recipient,\n        uint256 tAmount\n    ) private {\n        (\n            uint256 rAmount,\n            uint256 rTransferAmount,\n            uint256 rFee,\n            uint256 tTransferAmount,\n            uint256 tFee,\n            uint256 tCharity\n        ) = _getValues(tAmount);\n        _tOwned[sender] = _tOwned[sender].sub(tAmount);\n        _rOwned[sender] = _rOwned[sender].sub(rAmount);\n        _rOwned[recipient] = _rOwned[recipient].add(rTransferAmount);\n        _takeCharity(tCharity);\n        _reflectFee(rFee, tFee);\n        emit Transfer(sender, recipient, tTransferAmount);\n    }\n\n    function _transferBothExcluded(\n        address sender,\n        address recipient,\n        uint256 tAmount\n    ) private {\n        (\n            uint256 rAmount,\n            uint256 rTransferAmount,\n            uint256 rFee,\n            uint256 tTransferAmount,\n            uint256 tFee,\n            uint256 tCharity\n        ) = _getValues(tAmount);\n        _tOwned[sender] = _tOwned[sender].sub(tAmount);\n        _rOwned[sender] = _rOwned[sender].sub(rAmount);\n        _tOwned[recipient] = _tOwned[recipient].add(tTransferAmount);\n        _rOwned[recipient] = _rOwned[recipient].add(rTransferAmount);\n        _takeCharity(tCharity);\n        _reflectFee(rFee, tFee);\n        emit Transfer(sender, recipient, tTransferAmount);\n    }\n\n    function _takeCharity(uint256 tCharity) private {\n        uint256 currentRate = _getRate();\n        uint256 rCharity = tCharity.mul(currentRate);\n        _rOwned[address(this)] = _rOwned[address(this)].add(rCharity);\n        if (_isExcluded[address(this)]) _tOwned[address(this)] = _tOwned[address(this)].add(tCharity);\n    }\n\n    function _reflectFee(uint256 rFee, uint256 tFee) private {\n        _rTotal = _rTotal.sub(rFee);\n        _tFeeTotal = _tFeeTotal.add(tFee);\n    }\n\n    //to recieve ETH from uniswapV2Router when swaping\n    receive() external payable {}\n\n    function _getValues(uint256 tAmount)\n        private\n        view\n        returns (\n            uint256,\n            uint256,\n            uint256,\n            uint256,\n            uint256,\n            uint256\n        )\n    {\n        (uint256 tTransferAmount, uint256 tFee, uint256 tCharity) = _getTValues(tAmount, _taxFee, _charityFee);\n        uint256 currentRate = _getRate();\n        (uint256 rAmount, uint256 rTransferAmount, uint256 rFee) = _getRValues(tAmount, tFee, currentRate);\n        return (rAmount, rTransferAmount, rFee, tTransferAmount, tFee, tCharity);\n    }\n\n    function _getTValues(\n        uint256 tAmount,\n        uint256 taxFee,\n        uint256 charityFee\n    )\n        private\n        pure\n        returns (\n            uint256,\n            uint256,\n            uint256\n        )\n    {\n        uint256 tFee = tAmount.mul(taxFee).div(100);\n        uint256 tCharity = tAmount.mul(charityFee).div(100);\n        uint256 tTransferAmount = tAmount.sub(tFee).sub(tCharity);\n        return (tTransferAmount, tFee, tCharity);\n    }\n\n    function _getRValues(\n        uint256 tAmount,\n        uint256 tFee,\n        uint256 currentRate\n    )\n        private\n        pure\n        returns (\n            uint256,\n            uint256,\n            uint256\n        )\n    {\n        uint256 rAmount = tAmount.mul(currentRate);\n        uint256 rFee = tFee.mul(currentRate);\n        uint256 rTransferAmount = rAmount.sub(rFee);\n        return (rAmount, rTransferAmount, rFee);\n    }\n\n    function _getRate() private view returns (uint256) {\n        (uint256 rSupply, uint256 tSupply) = _getCurrentSupply();\n        return rSupply.div(tSupply);\n    }\n\n    function _getCurrentSupply() private view returns (uint256, uint256) {\n        uint256 rSupply = _rTotal;\n        uint256 tSupply = _tTotal;\n        for (uint256 i = 0; i < _excluded.length; i++) {\n            if (_rOwned[_excluded[i]] > rSupply || _tOwned[_excluded[i]] > tSupply) return (_rTotal, _tTotal);\n            rSupply = rSupply.sub(_rOwned[_excluded[i]]);\n            tSupply = tSupply.sub(_tOwned[_excluded[i]]);\n        }\n        if (rSupply < _rTotal.div(_tTotal)) return (_rTotal, _tTotal);\n        return (rSupply, tSupply);\n    }\n\n    function _getTaxFee() private view returns (uint256) {\n        return _taxFee;\n    }\n\n    function _getMaxTxAmount() private view returns (uint256) {\n        return _maxTxAmount;\n    }\n\n    function _getETHBalance() public view returns (uint256 balance) {\n        return address(this).balance;\n    }\n\n    function _setTaxFee(uint256 taxFee) external onlyOwner {\n        require(taxFee >= 1 && taxFee <= 10, \"taxFee should be in 1 - 10\");\n        _taxFee = taxFee;\n    }\n\n    function _setCharityFee(uint256 charityFee) external onlyOwner {\n        require(charityFee >= 1 && charityFee <= 5, \"charityFee should be in 1 - 5\");\n        _charityFee = charityFee;\n    }\n\n    function _setCharityFactory(address payable charityFactoryAddress) external onlyOwner {\n        charityFactory = charityFactoryAddress;\n    }\n\n    function _setMaxTxAmount(uint256 maxTxAmount) external onlyOwner {\n        require(maxTxAmount >= 100000000000000e9, \"maxTxAmount should be greater than 100000000000000e9\");\n        _maxTxAmount = maxTxAmount;\n    }\n\n    function _setUniswapV2Router(address uniswapV2RouterAddress) external onlyOwner {\n        uniswapV2Router = IUniswapV2Router02(uniswapV2RouterAddress);\n    }\n\n    function _setUniswapV2Pair(address uniswapV2PairAddress) external onlyOwner {\n        uniswapV2Pair = uniswapV2PairAddress;\n    }\n}\n",
  "sourcePath": "/home/dev/Desktop/projects/truffle/charity/contracts/CharityToken.sol",
  "compiler": {
    "name": "solc",
    "version": "0.8.12+commit.f00d7308.Emscripten.clang"
  },
  "schemaVersion": "3.4.5",
  "updatedAt": "2022-05-17T16:50:49.875Z",
  "networkType": "ethereum",
  "devdoc": {
    "kind": "dev",
    "methods": {
      "owner()": {
        "details": "Returns the address of the current owner."
      },
      "renounceOwnership()": {
        "details": "Leaves the contract without owner. It will not be possible to call `onlyOwner` functions anymore. Can only be called by the current owner. NOTE: Renouncing ownership will leave the contract without an owner, thereby removing any functionality that is only available to the owner."
      },
      "transferOwnership(address)": {
        "details": "Transfers ownership of the contract to a new account (`newOwner`). Can only be called by the current owner."
      }
    },
    "version": 1
  },
  "userdoc": {
    "kind": "user",
    "methods": {},
    "version": 1
  }
}